002020/04/145ARQUIVO DE BATIMENTO                              0000002643ZANC                                              1.0       0000000001
0100000685230000000001000138500321                                      PORTOCRED                                         SONIA MARIA MARTINS                               000000138500326113360521     1948/02/050                                                                                                    2                                                  EROTILDES SANTOS MARTINS                          PAULO MARTINS                                     HOTEL POUSADA DO ANGICO LTDA                                                                        0000000001104000
0100000685240000000001000139880691                                      PORTOCRED                                         MICHEL SIMOES DE OLIVEIRA                         000000139880693069866841     1980/09/290                                                                                                    0                                                  ELENITA SIMOES DE OLIVEIRA                        DIILMAR PEREIRA DE OLIVEIRA                       SOCIEDADA VICENTE PALLOTTI                                                                          0000000000970630
0100000685520000000001000527270091                                      PORTOCRED                                         JOSE LUIZ COSTA ROMANO                            0000005272700925204420       1950/02/120                                                                                                    0                                                  NELDA COSTA ROMANO                                FREDERICA ANTUNES ROMANO                          JOALHEIRO AUTONOMO                                                                                  0000000003000000
0100000697760000000001016457121331                                      PORTOCRED                                         CARLA CRISTINA MOREIRA DOS SANTOS                 000016457121334851574        1986/09/221                                                                                                    1                                                  JOSEFA MOREIRA DOS SANTOS                                                                           AUTONIMA                                                                                            0000000001000000
0100000698100000000001016908040411                                      PORTOCRED                                         DANIELE BANDEIRA DA SILVA                         000016908040412106983221     1989/04/161                                                                                                    0                                                  MARCIA ADRIANA DA SILVA                                                                             UNIMED RS                                                                                           0000000000850000
0100000698200000000001016977870371                                      PORTOCRED                                         KAMILA DE SOUZA TERRES                            000016977870371102703228     1994/02/211KAMILATERRES@HOTMAIL.COM                                                                            0                                                  SILVIA MARIA COUTINHO DE SOUZA                    ROGERIO SCHILLING TERRES                          SILVIA MARIA COUTINHO DE SOUZA                                                                      0000000000938000
0100000698420000000001017254290121                                      PORTOCRED                                         MARIA DEBORA NUNES RODRIGUES                      000017254290123087707125     1981/07/131                                                                                                    0                                                  LAURENI DOS SANTOS NUNES                                                                            AUTONOMO                                                                                            0000000000350000
0100000698590000000001017478790101                                      PORTOCRED                                         LEANDRO DE FRAGA                                  000017478790104099258751     1988/12/300                                                                                                    1                                                  LUCIANA MARGARIDA DE FRAGA                        CARLOS EMERSON PAIM DE FRAGA                      DEMUTH MAQUINAS INDUSTRIAIS LTDA                                                                    0000000000980000
0100000698620000000001017502530461                                      PORTOCRED                                         GABRIELA CRISTINE SCHEROLT                        000017502530465103281911     1990/06/151                                                                                                    5                                                  VERA LUCIA PELEGRINI SCHEROLT                     NAO CONSTA                                        NELSON CALCADOS                                                                                     0000000002500000
0100000698670000000001017606250511                                      PORTOCRED                                         MAIKELE FERREIRA NUNES                            000017606250511103352652     1986/11/091                                                                                                    4                                                  MARILDE FERREIRA NUNES                                                                              BORGONHI E OLIVEIRA COM DE PUR                                                                      0000000001506530
990001613282
